:020000040800F2
:1000000000000220E11F0008711F0008731F000894
:10001000751F0008771F0008791F00080000000006
:100020000000000000000000000000007B1F00082E
:100030007D1F0008000000007F1F0008811F0008CE
:10004000312000083120000831200008312000084C
:10005000312000083120000831200008312000083C
:10006000312000083120000831200008312000082C
:10007000312000083120000831200008312000081C
:100080003120000831200008312000080000000065
:100090000000000000000000000000003120000807
:1000A00031200008312000083120000831200008EC
:1000B00031200008312000083120000831200008DC
:1000C00031200008312000083120000831200008CC
:1000D0003120000831200008312000080000000015
:1000E0003120000831200008312000080000000005
:1000F00000000000000000000000000031200008A7
:1001000000000000312000083120000831200008E4
:1001100000000000000000000000000000000000DF
:10012000312000083120000831200008312000086B
:100130003120000800000000000000000000000066
:100140000000000000000000000000003120000856
:10015000312000083120000831200008312000083B
:1001600031200008312000080000000000000000DD
:10017000000000000000000000000000000000007F
:100180000000000031200008000000000000000016
:080190003120000831200008B5
:1001A00010B5054C237833B9044B13B10448AFF3B1
:1001B00000800123237010BD7000002000000000AB
:1001C000D428000808B5034B1BB103490348AFF31B
:1001D000008008BD0000000074000020D428000842
:1001E000034613F8012B002AFBD1181A0138704777
:1001F00001F0FF01102A2BDB10F0070F08D010F8D8
:10020000013B013A8B422DD010F0070F42B3F6D1DB
:10021000F0B441EA012141EA014122F007047FF0F4
:1002200000070023F0E80256083C85EA010586EA4B
:10023000010685FA47F5A3FA87F586FA47F6A5FA87
:1002400087F68EB9EED1F0BC01F0FF0102F0070293
:1002500032B110F8013B013A83EA010313B1F8D13E
:100260000020704701387047002D06BF354603381F
:10027000073815F0010F07D1013015F4807F02BF58
:10028000013015F4C03F0130F0BC0138704700BFA9
:1002900053B94AB9002908BF00281CBF4FF0FF31ED
:1002A0004FF0FF3000F07AB9ADF1080C6DE904CEE3
:1002B00000F006F8DDF804E0DDE9022304B0704741
:1002C0002DE9F0478C460D460446089E002B51D17F
:1002D0008A4217466DD9B2FA82FEBEF1000F0BD0EA
:1002E000CEF1200C01FA0EF520FA0CFC02FA0EF702
:1002F0004CEA050C00FA0EF44FEA174A250CBCFB39
:10030000FAF81FFA87F90AFB18CC45EA0C4508FBF6
:1003100009F3AB420AD9ED1908F1FF3280F02381CD
:10032000AB4240F22081A8F102083D44ED1AA4B28C
:10033000B5FBFAF00AFB105544EA054400FB09F945
:10034000A14509D9E41900F1FF3380F00A81A145E4
:1003500040F2078102383C44A4EB090440EA08401B
:100360000021002E61D024FA0EF400233460736063
:10037000BDE8F0878B4207D9002E54D0002186E8D3
:1003800021000846BDE8F087B3FA83F1002940F068
:100390008E80AB4202D3824200F2FA80841A65EB6F
:1003A00003050120AC46002E3FD086E81010BDE8C2
:1003B000F08712B90127B7FBF2F7B7FA87FEBEF153
:1003C000000F34D1EB1B3A0C1FFA87FC0121B3FB61
:1003D000F2F8250C02FB183345EA03450CFB08F341
:1003E000AB4207D9ED1908F1FF3002D2AB4200F25F
:1003F000D1808046ED1AA3B2B5FBF2F002FB105596
:1004000043EA05440CFB00FCA44507D9E41900F1BC
:10041000FF3302D2A44500F2B8801846A4EB0C04C6
:1004200040EA08409DE731463046BDE8F087CEF10E
:10043000200405FA0EF307FA0EF720FA04F83A0C36
:1004400025FA04F448EA0308B4FBF2F14FEA184530
:1004500002FB11441FFA87FC45EA044501FB0CF33B
:10046000AB4200FA0EF409D9ED1901F1FF3080F02A
:100470008A80AB4240F2878002393D44EB1A1FFA72
:1004800088F5B3FBF2F002FB103345EA034500FBAD
:100490000CF3AB4207D9ED1900F1FF386FD2AB4234
:1004A0006DD902383D44EB1A40EA01418FE7C1F1B2
:1004B000200722FA07F88B4005FA01F448EA030303
:1004C00020FA07FE4FEA134CFD404EEA040EB5FB3E
:1004D000FCF94FEA1E440CFB19551FFA83F844EA55
:1004E000054509FB08F4AC4202FA01F200FA01FAF0
:1004F00008D9ED1809F1FF3043D2AC4241D9A9F136
:1005000002091D442D1B1FFA8EFEB5FBFCF00CFBEF
:1005100010554EEA054400FB08F8A04507D9E41839
:1005200000F1FF3529D2A04527D902381C4440EA02
:100530000940A4EB0804A0FB02894C45C6464D4681
:1005400015D312D056B1BAEB0E0364EB050404FACE
:1005500007F7CB401F43CC40376074600021BDE8F3
:10056000F0871846F8E69046E0E6C245EAD2B8EBD6
:10057000020E69EB03050138E4E72846D7E7404659
:1005800091E78146BEE7014678E702383C4445E7FB
:10059000084608E7A8F102083D442BE7704700BF72
:1005A00010B504460E4B18784FF47A73B3FBF0F392
:1005B0000C4A1068B0FBF3F000F09AF868B90F2C01
:1005C00001D9012010BD002221464FF0FF3000F07C
:1005D0005DF8034B5C60002010BD012010BD00BF22
:1005E000000000200800002008B50B4B1A6842F4F8
:1005F00000721A601A6842F480621A601A6842F443
:1006000080721A60032000F02FF80020FFF7C8FF67
:1006100001F01EFC002008BD003C0240034A1168A6
:10062000034B1B780B441360704700BF9C000020F5
:1006300000000020014B1868704700BF9C0000209C
:1006400038B50446FFF7F6FF0546B4F1FF3F02D088
:10065000044B1B781C44FFF7EDFF401B8442FAD883
:1006600038BD00BF00000020074AD36823F4E063D0
:100670001B041B0C000200F4E060184340F0BF6054
:1006800040F40030D060704700ED00E030B4164B0D
:10069000DB68C3F30223C3F10704042C28BF04243E
:1006A0001D1D062D17D9033B012505FA04F4013C55
:1006B0002140994005FA03F3013B134019430028F8
:1006C0000BDB0901C9B200F1604000F5614080F820
:1006D000001330BC70470023E6E700F00F0009016B
:1006E000C9B2024B1954F4E700ED00E014ED00E04C
:1006F0000138B0F1807F0AD2064B5860F021064ADB
:1007000082F823100020986007221A6070470120A9
:10071000704700BF10E000E000ED00E000230F2B69
:1007200000F2CD80F0B583B095E085684FEA430EC6
:10073000032707FA0EF725EA0705CE6806FA0EF634
:1007400035438560456825EA02024D68C5F300150A
:100750009D402A434260C6685F000322BA40D243EC
:1007600016408D68BD402E43C6604D68022D00F0D6
:100770008480122D00F0818005682A404D6805F0C4
:100780000305BD402A4302604A6812F0805F5FD0D3
:10079000002201924A4A556C45F480455564526CDA
:1007A00002F480420192019A9D08AE1C454A52F81B
:1007B000262003F00306B6000F27B74022EA0702FF
:1007C000414FB84271D007F58067B8426FD007F546
:1007D0008067B8426DD007F58067B8426BD007F5E7
:1007E0008067B8425FD0072707FA06F63243023522
:1007F000344E46F82520354A1568E24305EA0206DC
:100800004F6817F4803F01D044EA05062F4D2E6053
:100810006D6802EA05064F6817F4003F01D044EA0C
:1008200005062A4D6E60AD6802EA05064F6817F4AA
:10083000801F01D044EA0506244DAE60ED682A40D1
:100840004E6816F4001F01D044EA05021F4CE26016
:1008500001330F2B31D801229A400C681440A24278
:10086000F6D14D686E1E012E7FF65FAF112D3FF45D
:100870005CAF122D7FF46FAF57E74FEAD30E0EF146
:10088000080E50F82E5003F0070C4FEA8C0C0F2680
:1008900006FA0CF625EA06050E6906FA0CF635434B
:1008A00040F82E5068E704279EE700279CE70127C1
:1008B0009AE7022798E7032796E703B0F0BD704751
:1008C000003802400038014000000240003C014076
:1008D0000369194201D1002070470120704712B905
:1008E000090481617047816170470000002800F0B1
:1008F000E48170B582B00446036813F0010F3BD069
:10090000A74B9B6803F00C03042B2CD0A44B9B68D3
:1009100003F00C03082B21D06368B3F5803F4FD060
:10092000B3F5A02F52D09E4B1A6822F480321A6081
:100930001A6822F480221A606368002B50D0FFF7F7
:1009400079FE0546964B1B6813F4003F14D1FFF760
:1009500071FE401B6428F5D90320B3E1904B5B681E
:1009600013F4800FD8D08E4B1B6813F4003F03D0D4
:100970006368002B00F0A381236813F0020F55D0A9
:10098000874B9B6813F00C0F3ED0854B9B6803F0A0
:100990000C03082B33D0E368002B68D00122814B75
:1009A0001A60FFF747FE05467D4B1B6813F0020FE8
:1009B00054D1FFF73FFE401B0228F5D9032081E107
:1009C000774A136843F480331360B5E7744B1A68B1
:1009D00042F480221A601A6842F480321A60ABE74F
:1009E000FFF728FE05466E4B1B6813F4003FC3D08B
:1009F000FFF720FE401B6428F5D9032062E1684B15
:100A00005B6813F4800FC6D1654B1B6813F0020FAF
:100A100004D0E368012B01D0012053E1604A136840
:100A200023F0F803216943EAC1031360236813F03C
:100A3000080F40D0636963B301225B4B1A60FFF774
:100A4000F9FD0546564B5B6F13F0020F33D1FFF7EC
:100A5000F1FD401B0228F5D9032033E1504A136809
:100A600023F0F803216943EAC1031360DEE70022A3
:100A70004C4B1A60FFF7DEFD0546494B1B6813F02F
:100A8000020FD3D0FFF7D6FD401B0228F5D9032073
:100A900018E10022444B1A60FFF7CCFD0546404B9D
:100AA0005B6F13F0020F06D0FFF7C4FD401B022856
:100AB000F5D9032006E1236813F0040F79D0384BF1
:100AC0001B6C13F0805F33D100230193344B1A6CFD
:100AD00042F080521A641B6C03F080530193019B17
:100AE0000125324B1B6813F4807F23D0A368012BB0
:100AF00034D0052B38D02A4B1A6F22F001021A6726
:100B00001A6F22F004021A67A368002B36D0FFF791
:100B100091FD0646224B1B6F13F0020F48D1FFF7E1
:100B200089FD801B41F288339842F3D90320C9E044
:100B30000025D6E71D4A136843F480731360FFF75E
:100B400079FD0646194B1B6813F4807FCED1FFF761
:100B500071FD801B0228F5D90320B3E0104A136F02
:100B600043F001031367CFE70D4B1A6F42F0040205
:100B70001A671A6F42F001021A67C5E7FFF75AFDBC
:100B80000646074B1B6F13F0020F11D0FFF752FD03
:100B9000801B41F288339842F3D9032092E000BFD2
:100BA0000038024000004742800E4742007000407B
:100BB000EDB9A369002B00F08480454A926802F0E9
:100BC0000C02082A51D0022B17D00022414B1A6088
:100BD000FFF730FD04463E4B1B6813F0007F42D008
:100BE000FFF728FD001B0228F5D903206AE0384AE8
:100BF000136C23F080531364DBE70022354B1A603B
:100C0000FFF718FD0546324B1B6813F0007F06D036
:100C1000FFF710FD401B0228F5D9032052E0E369DD
:100C2000226A1343626A43EA8213A26A5208013AB3
:100C300043EA0243E26A43EA0263254A536001221F
:100C4000244B1A60FFF7F6FC0446214B1B6813F097
:100C5000007F06D1FFF7EEFC001B0228F5D9032028
:100C600030E000202EE000202CE0012B2CD0184B8F
:100C70009B6803F48001E269914201D0012021E0E8
:100C800003F03F02216A8A4201D001201AE0616A22
:100C900047F6C0721A408A4201D0012012E003F4E4
:100CA0004032A16A8A4201D001200BE003F0706358
:100CB000E26A93420AD0012004E00120704701203B
:100CC00000E0002002B070BD0120FBE70020F9E742
:100CD0000038024060004742F8B5314B9B6803F092
:100CE0000C03042B59D0082B01D02E48F8BD2C4BF7
:100CF0005A6802F03F025B6813F4800F2AD0284B39
:100D00005B68C3F388131E4600275C010025E41AC4
:100D100065EB0705A90141EA9461A001001B61EBA5
:100D20000501CB0043EA5073C400A01943EB07014F
:100D30004B0243EAD0534402204619460023FFF7F2
:100D4000A7FA174B5B68C3F3014301335B00B0FBA9
:100D5000F3F0F8BD124B5B68C3F388131E460027FF
:100D60005C010025E41A65EB0705A90141EA9461DD
:100D7000A001001B61EB0501CB0043EA5073C400E6
:100D8000A01943EB07018B0243EA905384022046EB
:100D900019460023FFF77CFAD3E70348F8BD00BFEC
:100DA000003802400024F40000127A00002800F00D
:100DB0009E8070B50446504B1B6803F00F038B42B6
:100DC00009D2CBB24C4A1370136803F00F03994257
:100DD00001D0012070BD236813F0020F17D013F06B
:100DE000040F04D0454A936843F4E05393602368AA
:100DF00013F0080F04D0414A936843F460439360B2
:100E00003E4A936823F0F003A068034393600D46C5
:100E1000236813F0010F32D06368012B21D09A1E92
:100E2000012A25D9354A126812F0020F61D03349E0
:100E30008A6822F0030213438B60FFF7FBFB064630
:100E40002E4B9B6803F00C036268B3EB820F16D045
:100E5000FFF7F0FB801B41F288339842F0D9032062
:100E600070BD264A126812F4003FE0D1012070BD27
:100E7000224A126812F0007FD9D1012070BD1E4BAA
:100E80001B6803F00F039D4209D2EAB21A4B1A7095
:100E90001B6803F00F039D4201D0012070BD236841
:100EA00013F0040F06D0154A936823F4E053E16869
:100EB0000B439360236813F0080F07D00F4A936821
:100EC00023F46043216943EAC1039360FFF704FF01
:100ED0000A4B9B68C3F30313094AD35CD840094B00
:100EE0001860094B1868FFF75BFB002070BD0120FC
:100EF0007047012070BD00BF003C02400038024036
:100F0000EC2800080800002004000020014B1868AD
:100F1000704700BF0800002008B5FFF7F7FF044B3B
:100F20009B68C3F38223034AD35CD84008BD00BF4B
:100F300000380240FC28000808B5FFF7E7FF044B23
:100F40009B68C3F34233034AD35CD84008BD00BF5B
:100F500000380240FC28000830B583B0044603681E
:100F600013F0050F0ED1236813F0020F38D1236858
:100F700013F0080F00F09B80227D4E4B1A6000207A
:100F800003B030BD00224C4B1A60FFF753FB0546FF
:100F90004A4B1B6813F0006F06D0FFF74BFB401B5A
:100FA0000228F5D90320EBE76368A26843EA8213BD
:100FB000E26843EA0273414AC2F8843001223E4BA0
:100FC0001A60FFF737FB05463C4B1B6813F0006FB8
:100FD000C9D1FFF72FFB401B0228F5D90320CFE72B
:100FE00000230193354B1A6C42F080521A641B6C3B
:100FF00003F080530193019B314A136843F48073DB
:101000001360FFF717FB05462D4B1B6813F4807F19
:1010100006D1FFF70FFB401B0228F5D90320AFE7ED
:10102000264B1B6F13F4407312D0226902F44072F6
:1010300093420DD0214B1A6F22F4407221490120B6
:101040000860002008601A671B6F13F0010F12D1AF
:10105000236903F44072B2F5407F1DD0174A9368AC
:1010600023F4F813936015490B6F2269C2F30B0246
:1010700013430B677BE7FFF7DDFA05460F4B1B6F4A
:1010800013F0020FE4D1FFF7D5FA401B41F2883389
:101090009842F3D9032073E708498A6822F4F812CA
:1010A00023F0704323F4407313438B60DBE700208D
:1010B00066E700BFE011474268004742003802403F
:1010C00000700040400E474238B504460268D368BD
:1010D00023F0A003D360FFF7ADFA05462368DB6871
:1010E00013F0200F07D1FFF7A5FA401BB0F57A7F68
:1010F000F4D9032038BD002038BD38B50368DA685C
:1011000012F0400F01D0002038BD04464FF0FF32EE
:10111000DA60FFF78FFA05462368DB6813F0400FAB
:1011200007D1FFF787FA401BB0F57A7FF4D9032087
:1011300038BD002038BD38B500285CD00446437F58
:10114000002B41D0022363772368CA225A622368A6
:1011500053225A622046FFF7D0FF0546002837D1B8
:101160002268936823F4E00323F04003936021682E
:101170008A686368206903436069034313438B6093
:101180002368E2681A6122681369A16843EA01438F
:1011900013612268D36823F08003D36023689B68BF
:1011A00013F0200F1BD02268136C23F480231364E8
:1011B0002268136CA1690B4313642368FF225A62EF
:1011C00001236377284638BD037700F061FEB9E755
:1011D0002368FF225A62042363770125F2E7204641
:1011E000FFF772FF0028DED02368FF225A62042333
:1011F00063770125E6E70125E4E7002302E00133F8
:101200000A38C0B20928FAD81B01DBB2184370476C
:10121000F8B5037F012B77D00E46044601230377F0
:1012200002234377002A46D103689B6813F0400FDE
:1012300001D10023CB703078FFF7DFFF0504707811
:10124000FFF7DBFF45EA0025B078FFF7D6FF28431C
:10125000F57840EA05452368CA225A62236853227A
:101260005A622046FFF749FF0746002835D1236818
:1012700005F07F3525F0FE451D602268936823F454
:101280008023936021688B68F268306902431343BE
:101290008B602268D36823F08003D36023689B6847
:1012A00013F0200F22D02368FF225A6201236377B4
:1012B0000023237729E003689B6813F0400F01D1D6
:1012C0000023CB7035787078000240EA0540B5788D
:1012D0002843F57840EA0545BDE72368FF225A62B6
:1012E000042363770023237701270EE02046FFF7CE
:1012F000EBFE0028D7D02368FF225A6204236377CD
:1013000000232377012700E002273846F8BD70B597
:10131000037F012B65D001230377022343773AB97A
:101320004B7813F0100F03D003F0EF030A334B7028
:101330000E460446002A32D1C878FFF75EFF050446
:101340007078FFF75AFF45EA0025B078FFF755FFA0
:101350002843357840EA45352368CA225A62236813
:1013600053225A622046FFF7C8FE064610BB236888
:1013700025F07F4525F0C0055D602268D36823F025
:101380008003D36023689B6813F0200F1BD0236871
:10139000FF225A62012363770023237722E0CD786E
:1013A0004878000240EA05408D7828430D7840EAED
:1013B0004535D1E72368FF225A620423637700236F
:1013C000237701260EE02046FFF77EFE0028DED0C0
:1013D0002368FF225A6204236377002323770126C0
:1013E00000E00226304670BDF8B5037F012B00F007
:1013F000A9800D4604460123037702234377002A80
:101400004DD103689B6813F0400F01D10023CB70CE
:10141000EE692878FFF7F1FE07046878FFF7EDFE24
:1014200047EA0027A878FFF7E8FE0743E87847EA8D
:10143000004795F82000FFF7E0FE47EA006006430A
:101440006B691E436F68AB691F432368CA225A62E7
:10145000236853225A626B6AB3F5807F39D02268C1
:10146000936823F4007393602268936823F4005315
:101470009360FFF7DFF805462368DA6812F0020F81
:1014800050D1FFF7D7F8401BB0F57A7FF4D9236825
:10149000FF225A620320607700232377F8BD036898
:1014A0009B6813F0400F01D10023CB70EE692A78BE
:1014B0006B781B0243EA0243AA781343EA7843EAB3
:1014C000024395F8202043EA02631E436B691E43E2
:1014D000B8E72268936823F4807393602268936866
:1014E00023F480539360FFF7A5F805462368DA6874
:1014F00012F0010F0DD1FFF79DF8401BB0F57A7F78
:10150000F4D92368FF225A620320607700232377EF
:10151000F8BDDE6123685F642268936843F48073DA
:10152000936007E01E6223689F642268936843F417
:10153000007393602368FF225A62012363770020BF
:101540002077F8BD0220F8BDF8B50446026813699B
:1015500023F44053C1680B4313618368026913434A
:1015600042691343C26913430168CA6822F41642F0
:1015700022F00C021343CB600268536923F44073DA
:1015800081690B435361C369B3F5004F34D00368DD
:10159000604A934200F0928002F58062934200F02C
:1015A0008D80FFF7B9FC25680021061841EB010783
:1015B00036184F41FB0043EA5673F20016461F46A9
:1015C00063689A009B0F80197941FEF761FE524CC7
:1015D000A4FB00325109642202FB110213013233D1
:1015E000A4FB03235B0903F0F00202EB011203F0FA
:1015F0000F031344AB60F8BD0368464A934230D0F2
:1016000002F5806293422CD0FFF786FC256800210A
:10161000061841EB010736184F41FB0043EA5673A9
:10162000F20016461F466268002392185B4180193B
:101630007941FEF72DFE384CA4FB0032510964229B
:1016400002FB1102D3003233A4FB03235B095A00CF
:1016500002F4F87202EB011203F007031344AB60CB
:10166000F8BDFFF769FC25680021061841EB01076A
:1016700036184F41FB0043EA5673F20016461F46E8
:101680006268002392185B4180197941FEF700FEE1
:10169000214CA4FB00325109642202FB1102D30049
:1016A0003233A4FB03235B095A0002F4F87202EB05
:1016B000011203F007031344AB60F8BDFFF73CFCD5
:1016C00025680021061841EB010736184F41FB0041
:1016D00043EA5673F20016461F4663689A009B0F52
:1016E00080197941FEF7D4FD0B4CA4FB003251095F
:1016F000642202FB110213013233A4FB03235B09B2
:1017000003F0F00202EB011203F00F031344AB608D
:10171000F8BD00BF001001401F85EB512DE9F041DD
:1017200005460F4616469846069C2B681B6837EA06
:1017300003030CBF01230023B3421ED1B4F1FF3FCA
:10174000F3D02CB1FEF776FFA0EB08008442ECD278
:101750002A68D36823F4D073D3602A68536923F0CE
:1017600001035361202385F8393085F83A3000238E
:1017700085F838300320BDE8F0810020BDE8F08115
:1017800058B310B5044690F839300BB3242384F8CD
:1017900039302268D36823F40053D3602046FFF722
:1017A000D3FE2268136923F49043136122685369BE
:1017B00023F02A0353612268D36843F40053D360B3
:1017C0000020E063202384F8393084F83A3010BDDB
:1017D00080F8383000F06AFBD8E7012070472DE927
:1017E000F04383B01E4690F83930DBB2202B04D092
:1017F0000223184603B0BDE8F08304460D46904628
:10180000002956D0002A56D090F83830012B01D14B
:101810000223EEE7012380F838304FF00009C0F8CA
:101820003C90212380F83930FEF704FF0746A4F8E6
:101830002480A4F8268084F8389010E000963B4677
:10184000002280212046FFF769FF002835D1226859
:101850002B88C3F3080353602369CBB90235E38CAB
:101860009BB2BBB1E38C9BB2013B9BB2E384A36808
:10187000B3F5805FE2D000963B46002280212046EF
:10188000FFF74CFFD8B923682A785A600135E6E79C
:101890000135E4E700963B46002240212046FFF751
:1018A0003DFF034608B10323A3E7202284F8392033
:1018B0009FE701239DE701239BE7032399E7032388
:1018C00097E72DE9F04383B01E4690F83A30DBB23B
:1018D000202B03D0022003B0BDE8F08304460D4660
:1018E000904600295AD0002A5AD090F83830012B5F
:1018F00001D10220EFE7012380F838304FF00009D2
:10190000C0F83C90222380F83A30FEF793FE074659
:10191000A4F82C80A4F82E8084F838901DE000965E
:101920003B46002220212046FFF7F8FE002839D14F
:10193000236933B923685B68C3F3080325F8023BC6
:101940000BE023685B68DBB225F8013B05E0236808
:101950005B6803F07F032B700135E38D9BB2C3B14D
:10196000E38D9BB2013B9BB2E385A368B3F5805F37
:10197000D5D000963B46002220212046FFF7CEFE20
:1019800090B92369002BE2D123685B682B70013585
:10199000E3E7202384F83A3000209CE701209AE70F
:1019A000012098E7032096E7032094E730B58BB039
:1019B0000024059406940794089409940194224BFA
:1019C0001A6B42F004021A631A6B02F004020192CD
:1019D000019A02941A6B42F080021A631A6B02F0A9
:1019E00080020292029A03941A6B42F001021A6377
:1019F0001A6B02F001020392039A04941A6B42F0EC
:101A000002021A631B6B03F002030493049B0F4D45
:101A1000224620212846FEF762FF4FF4005305932B
:101A20000B4B0693079405A90A48FEF777FE20237F
:101A30000593012306930794089405A92846FEF709
:101A40006DFE0BB030BD00BF003802400000024008
:101A5000000021100008024070B590B000240B94E3
:101A60000C940D940E940F940A94282221466846F3
:101A700000F00AFB204D214B2B606C607F23AB6094
:101A8000FF23EB602C616C61AC612846FFF753FBD0
:101A90008DF82C408DF82D408DF82E400E940F942B
:101AA00001220BA92846FFF7B3FB01268DF8286019
:101AB0008DF829608DF82A608DF82B4032460AA9EE
:101AC0002846FFF724FC8DF800408DF801408DF882
:101AD00002400194039404940594069407948DF8AD
:101AE00020604FF480730993324669462846FFF719
:101AF0007BFC10B070BD00BFA80100200028004092
:101B000008B50848084B03604FF4E13343600023F5
:101B10008360C36003610C2242618361C361FFF78C
:101B20002FFE08BD680100200010014008B50848DC
:101B3000084B03604FF4E133436000238360C360CC
:101B400003610C2242618361C361FFF719FE08BD86
:101B5000C80100200044004030B59BB03022002175
:101B60000EA800F091FA002409940A940B940C94A6
:101B70000D94039404940594069407940894019496
:101B80001E4B1A6C42F080521A641B6C03F0805397
:101B90000193019B02941A4B1A6842F440421A6066
:101BA0001B6803F440430293029B0A230E93012215
:101BB00011921023129313920225149515941693E3
:101BC0004FF4A87317930423189319930EA8FEF7E4
:101BD0008DFE0F2309930A950B944FF480530C93B9
:101BE0000D94294609A8FFF7E1F803954FF4007317
:101BF000079303A8FFF7B0F91BB030BD00380240CF
:101C0000007000402DE9F041ADF5A36DFEF7ECFC4E
:101C10006426324600210DF2B44000F035FA324617
:101C200000210DF58A6000F02FFA32460021FBA852
:101C300000F02AFAFFF790FFFFF7B8FEFFF70CFF5E
:101C4000FFF75EFFFFF772FF714CFF23042271491B
:101C50002046FFF7C4FD4FF4FA60FEF7F1FCFF23C6
:101C600014226D492046FFF7BAFD4FF4FA60FEF7E3
:101C7000E7FCFF23112269492046FFF7B0FD4FF42E
:101C8000FA60FEF7DDFC4FF4FA6305220DF58A6178
:101C90002046FFF716FE0DF58A60FEF7A1FA604FA9
:101CA000FF2382B20DF58A613846FFF798FDFF23C6
:101CB0002C225C492046FFF792FD41F27070FEF73E
:101CC000BFFC4FF4FA630A220DF2B4412046FFF73D
:101CD000F8FD0DF2B440FEF783FAFF2382B20DF255
:101CE000B4413846FFF77BFDFF2309224E493846B1
:101CF000FFF775FDFF2323224C492046FFF76FFDB8
:101D00004FF47A70FEF79CFCFF236122484920467D
:101D1000FFF765FD4FF4FA60FEF792FCFF236A229D
:101D200044492046FFF75BFD4FF4FA60FEF788FC5C
:101D3000FF230A2240492046FFF751FD4FF47A6302
:101D40003246FBA92046FFF7BCFD4FF4FA60FEF7D0
:101D500077FC3A4A00231A70984601273E4612E063
:101D6000CDB9012E01D0064615E02E4613E04FF402
:101D7000FA70FEF765FCFF23162231492448FFF76D
:101D80002EFD6FBB25464FF400512E48FEF7A0FDF7
:101D900004460128E4D0012EE9D04FF4FA70FEF792
:101DA0004FFCFF23162228491948FFF718FD002F82
:101DB000E8D14FF4FA70FEF743FC08F101084246FF
:101DC000224901A800F068F97EA8FEF709FA40F65A
:101DD000FF7382B27EA90E48FFF701FD0127D1E70C
:101DE00008F101084FF4FA70FEF72AFC4246174941
:101DF0007EA800F051F97EA8FEF7F2F940F6FF73D5
:101E000082B27EA90248FFF7EAFC0027BAE700BFCA
:101E100068010020042900080C2900082429000872
:101E2000C80100203829000868290008782900081E
:101E30009C290008002A00086C2A0008782A00085B
:101E40007C2A000800080240D02A0008942A0008D2
:101E500000B583B0002100910C4B5A6C42F48042D3
:101E60005A645A6C02F480420092009A01911A6CF2
:101E700042F080521A641B6C03F080530193019B63
:101E80000720FEF7F1FB03B05DF804FB00380240C9
:101E90000268044B9A4200D070470122024B1A603C
:101EA000FAE700BF002800403C0E474200B58BB067
:101EB0000023059306930793089309930368284A20
:101EC000934205D0274A934226D00BB05DF804FB1D
:101ED00000210191244B5A6C42F010025A645A6C52
:101EE00002F010020192019A02911A6B42F0010273
:101EF0001A631B6B03F001030293029B4FF4C06350
:101F0000059302230693032308930723099305A946
:101F10001648FEF703FCD8E700210391124B1A6C18
:101F200042F400321A641A6C02F400320392039AEB
:101F300004911A6B42F001021A631B6B03F0010358
:101F40000493049B0C230593022306930323089315
:101F50000723099305A90548FEF7E0FBB5E700BF95
:101F600000100140004400400038024000000240E0
:101F70007047FEE7FEE7FEE7FEE7704770477047F1
:101F800008B5FEF74BFB08BD08B503460B4A1268BF
:101F900042B10A4A106803446A46934206D8074A87
:101FA000136008BD0649054A1160F2E700F042F8E7
:101FB0000C2303604FF0FF3008BD00BF8C000020F1
:101FC0000C020020054BD3F8882042F47002C3F8BD
:101FD00088204FF000629A60704700BF00ED00E07B
:101FE000DFF834D0002103E00C4B5B584350043140
:101FF0000B480C4B42189A42F6D30B4A02E00023DE
:1020000042F8043B094B9A42F9D3FFF7DBFF00F09B
:1020100017F8FFF7F7FD7047000002202C2B00088F
:102020000000002070000020700000200C02002042
:10203000FEE70000014B1868704700BF0C0000204D
:1020400070B50D4E0D4CA41BA4100025A54209D15E
:102050000B4E0C4C00F03EFCA41BA4100025A54226
:1020600005D170BD56F8253098470135EEE756F892
:10207000253098470135F2E7242B0008242B00086F
:10208000242B0008282B000802440346934200D169
:10209000704703F8011BF9E70EB400B59CB04FF48C
:1020A00002711DABADF81410029006906FF0004164
:1020B0000A48049107914FF6FF7153F8042BADF8CD
:1020C00016100068019302A900F066F8029B002236
:1020D0001A701CB05DF804EB03B070470C000020D0
:1020E0002DE9F0478E689E4282460C4691469846FE
:1020F00035D88A8912F4906F31D0256809696F1A32
:102100006569022305EB450595FBF3F508F101032D
:102110003B449D4238BF1D46530531D5294600F04A
:1021200039FB064650B90C23CAF80030A38943F0A6
:102130004003A3814FF0FF30BDE8F0873A462169A4
:1021400000F0B4FAA38923F4906343F08003A381E1
:10215000266165613E44ED1B2660A5604646464506
:1021600028BF464632464946206800F0AAFAA368CE
:102170009B1BA36023681E4426600020BDE8F087F7
:102180002A4600F065FB06460028E1D12169504649
:1021900000F0B2FAC7E700002DE9F04F9DB080468D
:1021A00003938B891C060D4616460FD50B696BB938
:1021B000402100F0EFFA2860286128B90C23C8F804
:1021C00000304FF0FF30C5E040236B6100230993DE
:1021D00020238DF8293030238DF82A304FF0010B61
:1021E00037463C4614F8013B002B3CD1B7EB060ABE
:1021F0000BD05346324629464046FFF771FF013067
:1022000000F0A380099B534409933B78002B00F016
:102210009C8000234FF0FF320493079305920693AE
:102220008DF853301A93052221785048FDF7E0FFCE
:10223000671C049BD8B9D90644BF20228DF85320CF
:102240001A0744BF2B228DF8532022782A2A16D051
:10225000079A00210A20274601343B78303B092B9E
:1022600051D9C9B111E0252BC0D02746B9E73F4A63
:10227000801A0BFA00F0184304903C46D3E7039A07
:10228000111D12680391002A01DB079204E05242FB
:1022900043F00203079204933B782E2B0ED17B78F8
:1022A0002A2B07F1010132D1039B1A1D1B680392EF
:1022B000002BB8BF4FF0FF33023705932C4C397811
:1022C00003222046FDF794FF38B14023001B03FA98
:1022D00000F0049B034304930137397825488DF8B7
:1022E000281006227E1CFDF783FF002835D0224BE4
:1022F000FBB9039B073323F0070308330393099BC0
:102300004B4409936CE700FB02320121A3E7002351
:10231000059318460A240F4601313A78303A092AC3
:1023200003D9002BCAD00590C8E704FB0020012385
:10233000F1E703AB00932A46104B04A94046AFF3E4
:102340000080B0F1FF3F8146D9D1AB895B063FF5F4
:1023500038AF09981DB0BDE8F08F03AB00932A4653
:10236000064B04A9404600F081F8EAE7E82A000895
:10237000EE2A0008F22A000800000000E120000810
:102380002DE9F04791461F468A680B69DDF82080E9
:102390009342B8BF1346C9F8003091F8432006466F
:1023A0000C4612B10133C9F800302368990642BFC8
:1023B000D9F800300233C9F80030256815F0060559
:1023C00007D104F1190AE368D9F800209B1A9D424D
:1023D00029DB94F843302268003318BF01239206AA
:1023E0002ED404F1430239463046C047013021D093
:1023F0002368E568D9F8002003F00603042B08BF22
:10240000AD1AA36822690CBF25EAE5750025934241
:10241000C4BF9B1AED184FF000091A344D451BD16B
:102420000020BDE8F0870123524639463046C047B8
:10243000013003D14FF0FF30BDE8F0870135C2E72E
:10244000E1185A1C302081F84300224494F84510CA
:1024500082F843100233C4E701232246394630464E
:10246000C0470130E6D009F10109D7E72DE9F04373
:1024700017460A7E85B06E2A984606460C460C9B87
:1024800001F1430E00F0BC801AD8632A2ED00AD87E
:10249000002A00F0C880582A00F08A8004F1420522
:1024A00084F842202AE0642A01D0692AF6D1216802
:1024B0001A6811F0800F23D0111D1960136827E0EE
:1024C000732A00F0B48008D86F2A2AD0702AE5D188
:1024D0000A6842F020020A6003E0752A21D0782AB7
:1024E000DCD1782284F845206E4964E01A6801F155
:1024F0004205111D1960136884F842300123A3E0DE
:1025000011F0400F02F104011960D7D0B2F9003088
:10251000002B03DA2D225B4284F8432062490A2211
:1025200017E02068196810F0800F03D0081D1860AC
:102530000B6806E010F0400F01F104001860F7D0BE
:102540000B8859496F2A14BF0A220822002084F8F8
:1025500043006568A560002DC0F29C80206820F0D3
:1025600004002060002B3FD1002D40F0958075467F
:10257000082A0BD12368DA0708D5236962689A42D2
:10258000DEBF302305F8013C05F1FF35AEEB050356
:102590002361CDF800803B4603AA21463046FFF771
:1025A000EFFE013055D14FF0FF3005B0BDE8F083AC
:1025B00081F845203C492268186812F0800F00F12C
:1025C00004051D6001D0036802E05506FBD50388B1
:1025D000D00744BF42F0200222601BB9226822F0DB
:1025E000200222601022B1E77546B3FBF2F002FB35
:1025F0001033CB5C05F8013D03460028F5D1B7E761
:1026000008681A68496910F0800F04D0101D18601E
:102610001368196007E010F0400F02F10400186021
:102620001368F6D01980002323617546B1E71A6854
:10263000111D19601568626800212846FDF7D8FD54
:1026400008B1401B606063682361002384F8433055
:102650009FE723692A4639463046C0470130A2D059
:1026600023689B0707D5002504F11909E368039A3D
:102670009B1A9D4205DBE068039B9842B8BF184651
:1026800093E701234A4639463046C04701308AD095
:102690000135EBE7002BA7D10B7884F8423004F129
:1026A000420565E70A2B0008F92A000810B5431E09
:1026B0000A44914200D110BD11F8014B03F8014FBB
:1026C000F7E7884210B501EB020303D8421E994296
:1026D0000CD110BD9842F9D28118D21AD34200D140
:1026E00010BD13F8014D01F8014DF7E711F8014B4A
:1026F00002F8014FEBE7000038B50546002945D048
:1027000051F8043C0C1F002BB8BFE41800F0D6F8B9
:102710001F4A1368104633B9636014602846BDE849
:10272000384000F0CCB8A3420CD92168621893421B
:1027300004BF1A685B68636004BF521822600460BB
:10274000ECE713465A680AB1A242FAD91968581838
:10275000A0420BD120680144581882421960DDD193
:10276000106852685A6001441960D7E702D90C23F7
:102770002B60D3E7206821188A4204BF1168526891
:10278000626004BF091821605C60C7E738BD00BF04
:102790009400002070B5CD1C25F0030508350C2DE4
:1027A00038BF0C25002D064601DBA94203D90C23B6
:1027B0003360002070BD00F081F8234A1468214680
:1027C00091B9224C23681BB9304600F067F82060AD
:1027D0002946304600F062F8431C26D10C233360B2
:1027E000304600F06CF8E4E70B685B1B1AD40B2B47
:1027F0000FD90B60CD50CC18304600F060F804F1D2
:102800000B00231D20F00700C31A1BD05A42E250D0
:1028100070BD8C420DBF63684B686360136018BF66
:102820000C46E9E70C464968CAE7C41C24F00304D7
:10283000A04205D0211A304600F030F80130CDD04A
:102840002560D9E770BD00BF9400002098000020EB
:10285000F8B5074614460E4621B91146BDE8F840C2
:10286000FFF798BF22B9FFF747FF25462846F8BD76
:1028700000F026F884420FD921463846FFF78AFF38
:1028800005460028F2D031462246FFF70FFF3146B9
:102890003846FFF731FFE9E73546E7E738B5064C3C
:1028A0000023054608462360FFF76EFB431C02D158
:1028B000236803B12B6038BD0802002070477047C1
:1028C00051F8040C0028A0F10400BCBF0B58C0183C
:1028D00070470000F8B500BFF8BC08BC9E467047C2
:0C28E000F8B500BFF8BC08BC9E4670476D
:1028EC0000000000000000000102030406070809B4
:1028FC00000000000102030441540D0A0000000016
:10290C0041542B5359534750494F4449523D313947
:10291C002C310D0A0000000041542B43574D4F44FD
:10292C00455F4355523D310D0A00000041542B4385
:10293C00574A41505F4355523D2277697A6E657410
:10294C005F696E646961222C2277697A6E657431D5
:10295C003233343521220D0A0000000048656C6CBE
:10296C006F5F776F726C640A0000000041542B4358
:10297C004950534E54504346473D312C352C22631D
:10298C006E2E6E74702E6F72672E636E220D0A009F
:10299C0041542B415A5345543D225250323034301D
:1029AC002D57697A46693336302D687562222C2290
:1029BC0057697A46693336304576625069636F22BF
:1029CC002C22533650396554637934536555704114
:1029DC00354562323366506F59333345537434473F
:1029EC00706E59734A4F63684A484558633D220DCF
:1029FC000A00000041542B4D515454544F5049433C
:102A0C003D22646576696365732F57697A4669332D
:102A1C0036304576625069636F2F6D6573736167ED
:102A2C0065732F6576656E74732F222C2264657620
:102A3C00696365732F57697A466933363045766218
:102A4C005069636F2F6D657373616765732F646570
:102A5C0076696365626F756E642F23220D0A000020
:102A6C0041542B415A434F4E0D0A0000322E350073
:102A7C0041542B5359534750494F57524954453D94
:102A8C0031392C310D0A000041542B4D5154545006
:102A9C0055423D227B2257697A66693336305F7422
:102AAC00656A75223A2257697A4669333630222C88
:102ABC00224576656E74223A25642E307D220D0AED
:102ACC000000000041542B5359534750494F575263
:102ADC004954453D31392C300D0A0000232D302B43
:102AEC002000686C4C006566674546470030313203
:102AFC00333435363738394142434445460030315A
:102B0C0032333435363738396162636465660000B8
:082B1C00A4D7FF7F01000000B7
:042B2400C5010008DF
:042B2800A1010008FF
:102B2C0001000000100000000024F4001000002040
:102B3C000000000000000000000000000000000089
:102B4C000000000000000000000000000000000079
:102B5C000000000000000000000000000000000069
:102B6C000000000000000000000000000000000059
:102B7C000000000000000000000000000000000049
:102B8C000000000000000000000000000000000039
:0400000508001FE1EF
:00000001FF
